:100000000C9457000C945C070C945C070C945C07F0
:100010000C945C070C94A6040C94DD040C945C070F
:100020000C945C070C945C070C945C070C945C07C4
:100030000C9479050C945C070C945C070C945C0799
:100040000C945C070C945C070C94C0020C945C0745
:100050000C945C070C945C070C945C070C945C0794
:100060000C945C070C945C070C945C070C945C0784
:100070000C945C070C945C070C945C070C945C0774
:100080000C945C070C945C070C945C07CA01D801C3
:10009000F80118023702570276029D02010001257D
:1000A0008001250127000ECA012701388000112494
:1000B0001FBECFEFD0E1DEBFCDBFECE9F0E040E006
:1000C00019C0B791A79137912791079107FD0EC0ED
:1000D00097918791EF01F92FE82F0BBF07900D92B1
:1000E000A217B307D9F7FE011BBE04C01D92A217C9
:1000F000B307E1F7ED3AF40721F70E946A040C9484
:06010000CE06F894FFCFCB
:100106003F065B4F666D7D277F67777C395E797129
:10011600CF92DF92EF92FF92CF93DF930E9409076F
:100126006B017C010E94950380912901813051F178
:1001360038F0823009F45BC0833009F4A5C0FFC0F3
:1001460080E00E94B80680E00E945E0780E00E9480
:10015600840681E00E94A006813009F0FCC00E945E
:10016600E30682E00E94E30681E0809329010E9473
:100176000907609305017093060180930701909328
:100186000801E9C081E00E94B8068FEF0E945E0771
:1001960080E00E94840682E00E94A006813089F4F5
:1001A60082E00E94E30682E0809329010E9409070B
:1001B60060930501709306018093070190930801EF
:1001C600CAC081E00E94A006823009F0C4C081E066
:1001D6000E94E306109229010E9409076093050117
:1001E600709306018093070190930801B4C082E0E2
:1001F6000E94B8068091050190910601A091070121
:10020600B0910801A7019601281B390B4A0B5B0B1D
:10021600CA01B90124E130E040E050E00E94C30584
:100226006A3071058105910520F48FEF0E945E0703
:1002360003C080E00E945E0781E00E9484068091F0
:10024600050190910601A0910701B0910801A7014F
:100256009601281B390B4A0B5B0B243631054105E9
:10026600510508F478C081E080932901C092050108
:10027600D0920601E0920701F09208010E94E3067F
:1002860082E00E94E30667C089E90E94B80680E022
:100296000E945E078091050190910601A0910701D9
:1002A600B0910801A7019601281B390B4A0B5B0B7D
:1002B600CA01B9012C3331054105510598F424E1F1
:1002C60030E040E050E00E94C3056A3071058105C8
:1002D600910520F481E00E94840607C080E00E9418
:1002E600840603C080E00E94840681E00E94A00686
:1002F600823089F581E00E94E3060E947406C82FC9
:100306000E946306D82F0E940007A7019601261BAC
:10031600370B480B590BC1111EC02431310541055D
:100326005105C8F4D11117C010922901C0920501D8
:10033600D0920601E0920701F09208010CC01092DB
:1003460029010E94090760930501709306018093B5
:10035600070190930801DF91CF91FF90EF90DF9016
:04036600CF90089597
:10036A00CF92DF92EF92FF920E9409076B017C0104
:10037A00E0912E018E2F90E08830910508F0F6C0AA
:10038A00FC01EA5BFF4F0C9412070E94420781E0CE
:10039A0080932E01C0921101D0921201E0921301B2
:1003AA00F0921401E3C00E942807882379F088E9B3
:1003BA000E94220782E080932E01C0921101D092FE
:1003CA001201E0921301F0921401D0C00E94E505D7
:1003DA00882309F4CBC081E080932C010E942B046E
:1003EA0010922E01C3C00E942807882379F080E06A
:1003FA000E94220783E080932E01C0921101D092BD
:10040A001201E0921301F0921401B0C00E94E505B6
:10041A00882309F4ABC081E080932C010E942B044D
:10042A0010922E01A3C00E942807882371F00E940F
:10043A00420784E080932E01C0921101D0921201EA
:10044A00E0921301F092140191C00E94E5058823FD
:10045A0009F48CC081E080932C010E942B04109235
:10046A002E0184C00E942807882379F089E90E9416
:10047A00220785E080932E01C0921101D0921201C9
:10048A00E0921301F092140171C00E94E5058823DD
:10049A0009F46CC081E080932C010E942B04109215
:1004AA002E0164C00E942807882371F00E944A071F
:1004BA0086E080932E01C0921101D0921201E0923F
:1004CA001301F092140152C00E94E505882309F431
:1004DA004DC081E080932C010E942B0410922E01C2
:1004EA0045C00E9428078823B9F080917300082E1E
:1004FA00000C990B90932801809327010E944E07C4
:10050A0087E080932E01C0921101D0921201E092ED
:10051A001301F09214012AC00E94E505882331F1E3
:10052A0081E080932C010E942B0410922E011EC0A0
:10053A000E942807882379F00E94460710922C010E
:10054A0010922E01C0921101D0921201E092130171
:10055A00F09214010BC00E94E505882339F081E06E
:10056A0080932C010E942B0410922E01FF90EF9091
:06057A00DF90CF90089510
:100580001F920F920FB60F9211240BB60F922F935A
:100590003F934F935F936F937F938F939F93AF930B
:1005A000BF93CF93EF93FF938BB1CCB182FF03C086
:1005B000109235014BC0809135018230C9F028F48A
:1005C000882341F0813071F03FC08330B9F084302E
:1005D000D9F03AC0CA3AD1F5C093000181E08093C6
:1005E000350134C0C093010182E0809335012EC0F3
:1005F000C093020183E08093350128C0C0930301BA
:1006000084E08093350122C0E0E0F1E0C483818181
:100610008130B9F464E0CF010E941D06C81311C0F7
:100620000E94090760931D0170931E0180931F01B2
:1006300090932001809103018093340181E08093A5
:1006400036011092350102C010923501FF91EF91F1
:10065000CF91BF91AF919F918F917F916F915F915A
:100660004F913F912F910F900BBE0F900FBE0F90A7
:040670001F9018952A
:10067400CF92DF92EF92FF920F931F930E9409078C
:1006840020913201222359F10C9B29C000911901B8
:1006940010911A0120911B0130911C016B017C0106
:1006A400C01AD10AE20AF30A9701860142E0C41A89
:1006B400D108E108F10842E6C416D104E104F104CA
:1006C40020F421E02093300108C0043611052105EF
:1006D400310518F022E0209330011092320120916C
:1006E40031012223C9F00D9B17C00091150110910F
:1006F40016012091170130911801DC01CB01801BF8
:10070400910BA20BB30B0297A105B10518F081E080
:1007140080932F01109231011F910F91FF90EF9060
:06072400DF90CF90089564
:10072A00CF92DF92EF92FF92CF93DF9380912901CC
:10073A008330F1F10E945907D82F0E947406811163
:10074A0004C0D0FF04C081E003C081E001C080E0A2
:10075A00C82FC1700E946306811104C0D1FF04C072
:10076A0081E003C081E001C080E0D82FD1700E94EF
:10077A0009076B017C010E940007C61AD70AE80A1A
:10078A00F90AC11108C0D11106C084E1C816D10402
:10079A00E104F10468F083E0809329010E940907CB
:1007AA0060930501709306018093070190930801F5
:0E07BA00DF91CF91FF90EF90DF90CF900895E8
:1007C800CF92DF92EF92FF920E9409076B017C01A2
:1007D80080912D01882319F0813081F033C086B1D2
:1007E800806486B981E080932D01C0920D01D0927A
:1007F8000E01E0920F01F092100124C00E94F7064A
:100808008823B9F024B185B190E0982F8827822BEE
:10081800909326018093250110922B0110922D01AF
:10082800C0920D01D0920E01E0920F01F0921001DA
:1008380009C00E940106882329F081E080932B01DA
:0E08480010922D01FF90EF90DF90CF90089559
:10085600CF93DF9300D000D0CDB7DEB710927400EF
:1008660081B3816081BB81B38D7F81BB20E030E0A5
:1008760022C0819923C082B38E7F82BB1C821B82D9
:1008860005C08B819C8101969C838B838B819C8187
:100896000997BCF382B3816082BB1A82198205C0B4
:1008A60089819A8101969A83898389819A81099798
:1008B600BCF32F5F3F4F29303105DCF20E94510611
:0E08C6000F900F900F900F90DF91CF9108953B
:1008D400F8940E94AC060E94D9060E94A1050E94C9
:1008E40038060E94ED060E94930678940E942E0713
:1008F4008823E1F30E94B5010E94E4030E943A03B5
:100904000E948B000E9434078C010E9439077C01ED
:100914000E947406811103C0C0E0D0E002C0C1E0AF
:10092400D0E00E9463068111C2600E9456078330A2
:1009340009F4C4600E9456072C2FA701B8010E9435
:08094400C3060E944A05D2CF50
:10094C001F920F920FB60F9211240BB60F922F938A
:10095C003F934F935F936F937F938F939F93AF933B
:10096C00BF93EF93FF938091320181110DC00E94D0
:10097C0009076093190170931A0180931B019093DE
:10098C001C0181E080933201FF91EF91BF91AF91F7
:10099C009F918F917F916F915F914F913F912F918B
:0E09AC000F900BBE0F900FBE0F901F9018956E
:1009BA001F920F920FB60F9211240BB60F922F931C
:1009CA003F934F935F936F937F938F939F93AF93CD
:1009DA00BF93EF93FF938091310181110DC00E9463
:1009EA00090760931501709316018093170190937C
:1009FA00180181E080933101FF91EF91BF91AF918E
:100A0A009F918F917F916F915F914F913F912F911C
:0E0A1A000F900BBE0F900FBE0F901F901895FF
:100A28000F931F93CF93DF93CDB7DEB72A970FB6F7
:100A3800F894DEBF0FBECDBF9AEA998392E09A83FD
:100A48000B838C837D836E835F834887298769E066
:100A5800CE0101960E941D068A8710E00AC0E1E0D7
:100A6800F0E0EC0FFD1FE10FF11D80810E9452079D
:100A78001F5F1A30A0F32A960FB6F894DEBF0FBE98
:0C0A8800CDBFDF91CF911F910F91089519
:100A9400CF93DF93C5E6D0E08881807F8883E0919F
:100AA4002A01F0E0E75FFE4F808190E0A0E08A5FDA
:100AB4009E4FAF4FFC015A2F0E941B0765BB288134
:100AC40081E090E000902A0102C0880F991F0A94E7
:100AD400E2F7822B888380912A018F5F80932A0119
:0E0AE400823010F010922A01DF91CF91089518
:100AF2001F920F920FB60F9211248F939F93AF9371
:100B0200BF938091210190912201A0912301B09184
:100B120024010196A11DB11D809321019093220110
:100B2200A0932301B093240181E080933701BF9108
:100B3200AF919F918F910F900FBE0F901F901895BC
:100B42000E9451060E943E070E94420710922E0107
:100B52000E9409076093110170931201809313019F
:100B62009093140186B1806486B910922D010E947F
:100B7200090760930D0170930E0180930F0190930A
:040B820010010895C1
:100B8600A1E21A2EAA1BBB1BFD010DC0AA1FBB1F8B
:100B9600EE1FFF1FA217B307E407F50720F0A21BFD
:100BA600B30BE40BF50B661F771F881F991F1A946A
:100BB60069F760957095809590959B01AC01BD0194
:040BC600CF010895BE
:100BCA000F931F930E9409070091110110911201BE
:100BDA002091130130911401DC01CB01801B910B90
:100BEA00A20BB30B21E00297A105B10508F420E09E
:080BFA00822F1F910F91089555
:100C02000F931F930E94090700910D0110910E018D
:100C120020910F0130911001DC01CB01801B910B5F
:100C2200A20BB30B21E00297A105B10508F420E065
:080C3200822F1F910F9108951C
:100C3A00AC0130E080E014C0FA01E30FF11D9081AD
:100C4A00892720E00AC0882334F490E0880F991F8E
:100C5A0097E0892701C0880F2F5F2830A0F33F5FF4
:060C6A00361750F3089557
:100C70008FEF8ABB1BBA84BBE4E6F0E080818F6013
:100C8000808315BAE5E6F0E08081807F808387B3BA
:100C9000806187BB88B38F7E88BB8CE683BF11BE23
:020CA0000895B5
:100CA20082B3836082BB80B58B7F80BD80EC8093F2
:100CB2007000E1E7F0E080818C7F808384E08093A4
:040CC200740008951D
:100CC60080912B01811109C0809125019091260107
:100CD600853F914020F481E0089581E0089580E009
:020CE60008956F
:100CE80080912C01811108C08091270190912801E1
:100CF800C29724F081E0089581E0089580E0089586
:100D0800882331F083B7806283BF80E881BF08956C
:0E0D180083B78F7D83BF88B38F7E88BB08951D
:100D2600109229010E94090760930501709306013C
:0A0D360080930701909308010895CF
:100D4000813019F4809130010895823019F4809136
:080D50002F01089580E00895D1
:100D58008EB58B608EBD83EC99E09BBD8ABD87B74D
:080D6800806187BF78940895B3
:100D7000E9E0F1E0982F9F70908382958F708183D6
:060D8000128213820895A7
:100D86000F930091330191E0900F909333010E94ED
:060D960014050F91089501
:100D9C00EC010E9463070E946207CE010E94640767
:060DAC00CE010E94600769
:100DB20082B18F7C82B98AB78A608ABF89B7806321
:040DC20089BF089548
:100DC600813019F4109230010895823011F4109296
:040DD6002F0108954C
:100DDA001092900089E189B988E98AB986E28093FC
:040DEA0095000895D3
:100DEE0086B1829586958695837091E0892781706C
:020DFE00089556
:100E000060911D0170911E0180911F019091200140
:020E1000089543
:100E1200609121017091220180912301909124011E
:020E2200089531
:100E2400EE0FFF1F0024001C0BBE0790F691E02D6F
:020E340009941F
:0E0E360057FD03C05BBF67910895608108956A
:0C0E44008093730084E88093740008958C
:0C0E500080917400881F8827881F089577
:0C0E5C0080913701811110923701089538
:0A0E68008091270190912801089560
:0A0E7200809125019091260108955A
:080E7C0017B887E886B9089554
:080E840084EA809374000895D4
:080E8C0084E9809374000895CD
:080E940084EC809374000895C2
:080E9C0084E8809374000895BE
:080EA4005D9BFECF8CB908959F
:060EAC0080912901089568
:060EB20080913401089557
:040EB8000C94000096
:040EBC008BBB08954F
:040EC0000E9481000B
:020EC40008958F
:020EC60008958D
:020EC80008958B
:020ECA00FF0324
:00000001FF
